{
  "_format": "hh-sol-artifact-1",
  "contractName": "CreatorSubscription",
  "sourceName": "contracts/CreatorSubscription.sol",
  "abi": [
    {
      "anonymous": false,
      "inputs": [
        {
          "indexed": true,
          "internalType": "address",
          "name": "creator",
          "type": "address"
        },
        {
          "indexed": false,
          "internalType": "uint256",
          "name": "newMonthlyPrice",
          "type": "uint256"
        }
      ],
      "name": "CreatorPriceUpdated",
      "type": "event"
    },
    {
      "anonymous": false,
      "inputs": [
        {
          "indexed": true,
          "internalType": "address",
          "name": "creator",
          "type": "address"
        },
        {
          "indexed": false,
          "internalType": "uint256",
          "name": "monthlyPrice",
          "type": "uint256"
        }
      ],
      "name": "CreatorRegistered",
      "type": "event"
    },
    {
      "inputs": [
        {
          "internalType": "uint256",
          "name": "_monthlyPrice",
          "type": "uint256"
        }
      ],
      "name": "registerCreator",
      "outputs": [],
      "stateMutability": "nonpayable",
      "type": "function"
    },
    {
      "inputs": [
        {
          "internalType": "address",
          "name": "creator",
          "type": "address"
        }
      ],
      "name": "subscribe",
      "outputs": [],
      "stateMutability": "payable",
      "type": "function"
    },
    {
      "anonymous": false,
      "inputs": [
        {
          "indexed": true,
          "internalType": "address",
          "name": "user",
          "type": "address"
        },
        {
          "indexed": true,
          "internalType": "address",
          "name": "creator",
          "type": "address"
        },
        {
          "indexed": false,
          "internalType": "uint256",
          "name": "expiry",
          "type": "uint256"
        }
      ],
      "name": "Subscribed",
      "type": "event"
    },
    {
      "inputs": [
        {
          "internalType": "address",
          "name": "creator",
          "type": "address"
        }
      ],
      "name": "unsubscribe",
      "outputs": [],
      "stateMutability": "nonpayable",
      "type": "function"
    },
    {
      "anonymous": false,
      "inputs": [
        {
          "indexed": true,
          "internalType": "address",
          "name": "creator",
          "type": "address"
        },
        {
          "indexed": true,
          "internalType": "address",
          "name": "subscriber",
          "type": "address"
        }
      ],
      "name": "Unsubscribed",
      "type": "event"
    },
    {
      "inputs": [
        {
          "internalType": "uint256",
          "name": "_newMonthlyPrice",
          "type": "uint256"
        }
      ],
      "name": "updateCreatorPrice",
      "outputs": [],
      "stateMutability": "nonpayable",
      "type": "function"
    },
    {
      "inputs": [
        {
          "internalType": "address",
          "name": "creator",
          "type": "address"
        }
      ],
      "name": "creatorPrice",
      "outputs": [
        {
          "internalType": "uint256",
          "name": "",
          "type": "uint256"
        }
      ],
      "stateMutability": "view",
      "type": "function"
    },
    {
      "inputs": [
        {
          "internalType": "address",
          "name": "user",
          "type": "address"
        }
      ],
      "name": "getActiveSubscribedCreators",
      "outputs": [
        {
          "internalType": "address[]",
          "name": "",
          "type": "address[]"
        }
      ],
      "stateMutability": "view",
      "type": "function"
    },
    {
      "inputs": [
        {
          "internalType": "address",
          "name": "user",
          "type": "address"
        }
      ],
      "name": "getSubscribedCreators",
      "outputs": [
        {
          "internalType": "address[]",
          "name": "",
          "type": "address[]"
        }
      ],
      "stateMutability": "view",
      "type": "function"
    },
    {
      "inputs": [
        {
          "internalType": "address",
          "name": "user",
          "type": "address"
        }
      ],
      "name": "isCreator",
      "outputs": [
        {
          "internalType": "bool",
          "name": "",
          "type": "bool"
        }
      ],
      "stateMutability": "view",
      "type": "function"
    },
    {
      "inputs": [
        {
          "internalType": "address",
          "name": "user",
          "type": "address"
        },
        {
          "internalType": "address",
          "name": "creator",
          "type": "address"
        }
      ],
      "name": "isSubscribed",
      "outputs": [
        {
          "internalType": "bool",
          "name": "",
          "type": "bool"
        }
      ],
      "stateMutability": "view",
      "type": "function"
    },
    {
      "inputs": [
        {
          "internalType": "address",
          "name": "user",
          "type": "address"
        },
        {
          "internalType": "address",
          "name": "creator",
          "type": "address"
        }
      ],
      "name": "subscriptionTimeLeft",
      "outputs": [
        {
          "internalType": "uint256",
          "name": "",
          "type": "uint256"
        }
      ],
      "stateMutability": "view",
      "type": "function"
    }
  ],
  "bytecode": "0x608060405260043610610090575f3560e01c8063ace5b30111610058578063ace5b3011461018c578063bb888649146101b4578063bdca7d77146101f0578063efd4606514610218578063f6416ef61461025457610090565b806341a7726a146100945780634f52ed50146100b05780637262561c146100ec57806392ac03b114610114578063a02c1f4514610150575b5f5ffd5b6100ae60048036038101906100a99190611652565b610290565b005b3480156100bb575f5ffd5b506100d660048036038101906100d1919061167d565b610862565b6040516100e391906116d3565b60405180910390f35b3480156100f7575f5ffd5b50610112600480360381019061010d9190611652565b61097b565b005b34801561011f575f5ffd5b5061013a60048036038101906101359190611652565b610b1f565b60405161014791906117a3565b60405180910390f35b34801561015b575f5ffd5b5061017660048036038101906101719190611652565b610be7565b60405161018391906117a3565b60405180910390f35b348015610197575f5ffd5b506101b260048036038101906101ad91906117ed565b610f01565b005b3480156101bf575f5ffd5b506101da60048036038101906101d59190611652565b611062565b6040516101e791906116d3565b60405180910390f35b3480156101fb575f5ffd5b50610216600480360381019061021191906117ed565b611134565b005b348015610223575f5ffd5b5061023e60048036038101906102399190611652565b6112d0565b60405161024b9190611832565b60405180910390f35b34801561025f575f5ffd5b5061027a6004803603810190610275919061167d565b611323565b6040516102879190611832565b60405180910390f35b5f73ffffffffffffffffffffffffffffffffffffffff168173ffffffffffffffffffffffffffffffffffffffff16036102fe576040517f08c379a00000000000000000000000000000000000000000000000000000000081526004016102f5906118a5565b60405180910390fd5b3373ffffffffffffffffffffffffffffffffffffffff168173ffffffffffffffffffffffffffffffffffffffff160361036c576040517f08c379a00000000000000000000000000000000000000000000000000000000081526004016103639061190d565b60405180910390fd5b5f5f8273ffffffffffffffffffffffffffffffffffffffff1673ffffffffffffffffffffffffffffffffffffffff1681526020019081526020015f205f015f9054906101000a900460ff166103f6576040517f08c379a00000000000000000000000000000000000000000000000000000000081526004016103ed90611975565b60405180910390fd5b5f5f5f8373ffffffffffffffffffffffffffffffffffffffff1673ffffffffffffffffffffffffffffffffffffffff1681526020019081526020015f206001015490505f811161047b576040517f08c379a0000000000000000000000000000000000000000000000000000000008152600401610472906119dd565b60405180910390fd5b8034146104bd576040517f08c379a00000000000000000000000000000000000000000000000000000000081526004016104b490611a45565b60405180910390fd5b5f60015f3373ffffffffffffffffffffffffffffffffffffffff1673ffffffffffffffffffffffffffffffffffffffff1681526020019081526020015f205f8473ffffffffffffffffffffffffffffffffffffffff1673ffffffffffffffffffffffffffffffffffffffff1681526020019081526020015f205f015490505f4282111561055a5762278d00826105539190611a90565b905061056c565b62278d00426105699190611a90565b90505b60405180602001604052808281525060015f3373ffffffffffffffffffffffffffffffffffffffff1673ffffffffffffffffffffffffffffffffffffffff1681526020019081526020015f205f8673ffffffffffffffffffffffffffffffffffffffff1673ffffffffffffffffffffffffffffffffffffffff1681526020019081526020015f205f820151815f015590505060035f3373ffffffffffffffffffffffffffffffffffffffff1673ffffffffffffffffffffffffffffffffffffffff1681526020019081526020015f205f8573ffffffffffffffffffffffffffffffffffffffff1673ffffffffffffffffffffffffffffffffffffffff1681526020019081526020015f205f9054906101000a900460ff166107b35760025f3373ffffffffffffffffffffffffffffffffffffffff1673ffffffffffffffffffffffffffffffffffffffff1681526020019081526020015f2084908060018154018082558091505060019003905f5260205f20015f9091909190916101000a81548173ffffffffffffffffffffffffffffffffffffffff021916908373ffffffffffffffffffffffffffffffffffffffff160217905550600160035f3373ffffffffffffffffffffffffffffffffffffffff1673ffffffffffffffffffffffffffffffffffffffff1681526020019081526020015f205f8673ffffffffffffffffffffffffffffffffffffffff1673ffffffffffffffffffffffffffffffffffffffff1681526020019081526020015f205f6101000a81548160ff0219169083151502179055505b8373ffffffffffffffffffffffffffffffffffffffff166108fc3490811502906040515f60405180830381858888f193505050501580156107f6573d5f5f3e3d5ffd5b508373ffffffffffffffffffffffffffffffffffffffff163373ffffffffffffffffffffffffffffffffffffffff167f1299b0ad0a8e7c2403716ae6507195ba96bd8cac7f49d8c129e18f9ae51374f08360405161085491906116d3565b60405180910390a350505050565b5f4260015f8573ffffffffffffffffffffffffffffffffffffffff1673ffffffffffffffffffffffffffffffffffffffff1681526020019081526020015f205f8473ffffffffffffffffffffffffffffffffffffffff1673ffffffffffffffffffffffffffffffffffffffff1681526020019081526020015f205f0154116108ec575f9050610975565b4260015f8573ffffffffffffffffffffffffffffffffffffffff1673ffffffffffffffffffffffffffffffffffffffff1681526020019081526020015f205f8473ffffffffffffffffffffffffffffffffffffffff1673ffffffffffffffffffffffffffffffffffffffff1681526020019081526020015f205f01546109729190611ac3565b90505b92915050565b4260015f3373ffffffffffffffffffffffffffffffffffffffff1673ffffffffffffffffffffffffffffffffffffffff1681526020019081526020015f205f8373ffffffffffffffffffffffffffffffffffffffff1673ffffffffffffffffffffffffffffffffffffffff1681526020019081526020015f205f015411610a37576040517f08c379a0000000000000000000000000000000000000000000000000000000008152600401610a2e90611b40565b60405180910390fd5b60015f3373ffffffffffffffffffffffffffffffffffffffff1673ffffffffffffffffffffffffffffffffffffffff1681526020019081526020015f205f8273ffffffffffffffffffffffffffffffffffffffff1673ffffffffffffffffffffffffffffffffffffffff1681526020019081526020015f205f5f82015f90555050610ac233826113a9565b3373ffffffffffffffffffffffffffffffffffffffff168173ffffffffffffffffffffffffffffffffffffffff167f7773c30acd0762ed6b4b92a9aa2c6b3c074e29ad93b334cbed8ba807c596f13a60405160405180910390a350565b606060025f8373ffffffffffffffffffffffffffffffffffffffff1673ffffffffffffffffffffffffffffffffffffffff1681526020019081526020015f20805480602002602001604051908101604052809291908181526020018280548015610bdb57602002820191905f5260205f20905b815f9054906101000a900473ffffffffffffffffffffffffffffffffffffffff1673ffffffffffffffffffffffffffffffffffffffff1681526020019060010190808311610b92575b50505050509050919050565b60605f60025f8473ffffffffffffffffffffffffffffffffffffffff1673ffffffffffffffffffffffffffffffffffffffff1681526020019081526020015f20805480602002602001604051908101604052809291908181526020018280548015610ca457602002820191905f5260205f20905b815f9054906101000a900473ffffffffffffffffffffffffffffffffffffffff1673ffffffffffffffffffffffffffffffffffffffff1681526020019060010190808311610c5b575b505050505090505f5f90505f5f90505b8251811015610d75574260015f8773ffffffffffffffffffffffffffffffffffffffff1673ffffffffffffffffffffffffffffffffffffffff1681526020019081526020015f205f858481518110610d0f57610d0e611b5e565b5b602002602001015173ffffffffffffffffffffffffffffffffffffffff1673ffffffffffffffffffffffffffffffffffffffff1681526020019081526020015f205f01541115610d68578180610d6490611b8b565b9250505b8080600101915050610cb4565b505f8167ffffffffffffffff811115610d9157610d90611bd2565b5b604051908082528060200260200182016040528015610dbf5781602001602082028036833780820191505090505b5090505f5f90505f5f90505b8451811015610ef4574260015f8973ffffffffffffffffffffffffffffffffffffffff1673ffffffffffffffffffffffffffffffffffffffff1681526020019081526020015f205f878481518110610e2657610e25611b5e565b5b602002602001015173ffffffffffffffffffffffffffffffffffffffff1673ffffffffffffffffffffffffffffffffffffffff1681526020019081526020015f205f01541115610ee757848181518110610e8357610e82611b5e565b5b6020026020010151838381518110610e9e57610e9d611b5e565b5b602002602001019073ffffffffffffffffffffffffffffffffffffffff16908173ffffffffffffffffffffffffffffffffffffffff16815250508180610ee390611b8b565b9250505b8080600101915050610dcb565b5081945050505050919050565b5f5f3373ffffffffffffffffffffffffffffffffffffffff1673ffffffffffffffffffffffffffffffffffffffff1681526020019081526020015f205f015f9054906101000a900460ff16610f8b576040517f08c379a0000000000000000000000000000000000000000000000000000000008152600401610f8290611c49565b60405180910390fd5b5f8111610fcd576040517f08c379a0000000000000000000000000000000000000000000000000000000008152600401610fc490611cb1565b60405180910390fd5b805f5f3373ffffffffffffffffffffffffffffffffffffffff1673ffffffffffffffffffffffffffffffffffffffff1681526020019081526020015f20600101819055503373ffffffffffffffffffffffffffffffffffffffff167fd8470957c667adad0ddabe4a4832b456429b8a0a990f2aed44c498dd1d3805878260405161105791906116d3565b60405180910390a250565b5f5f5f8373ffffffffffffffffffffffffffffffffffffffff1673ffffffffffffffffffffffffffffffffffffffff1681526020019081526020015f205f015f9054906101000a900460ff166110ed576040517f08c379a00000000000000000000000000000000000000000000000000000000081526004016110e490611975565b60405180910390fd5b5f5f8373ffffffffffffffffffffffffffffffffffffffff1673ffffffffffffffffffffffffffffffffffffffff1681526020019081526020015f20600101549050919050565b5f5f3373ffffffffffffffffffffffffffffffffffffffff1673ffffffffffffffffffffffffffffffffffffffff1681526020019081526020015f205f015f9054906101000a900460ff16156111bf576040517f08c379a00000000000000000000000000000000000000000000000000000000081526004016111b690611d19565b60405180910390fd5b5f8111611201576040517f08c379a00000000000000000000000000000000000000000000000000000000081526004016111f890611cb1565b60405180910390fd5b6040518060400160405280600115158152602001828152505f5f3373ffffffffffffffffffffffffffffffffffffffff1673ffffffffffffffffffffffffffffffffffffffff1681526020019081526020015f205f820151815f015f6101000a81548160ff021916908315150217905550602082015181600101559050503373ffffffffffffffffffffffffffffffffffffffff167f37289e7324e447be4ede738be5d6ceed835c3fae1e9ca953bfe1bd5c705499e7826040516112c591906116d3565b60405180910390a250565b5f5f5f8373ffffffffffffffffffffffffffffffffffffffff1673ffffffffffffffffffffffffffffffffffffffff1681526020019081526020015f205f015f9054906101000a900460ff169050919050565b5f4260015f8573ffffffffffffffffffffffffffffffffffffffff1673ffffffffffffffffffffffffffffffffffffffff1681526020019081526020015f205f8473ffffffffffffffffffffffffffffffffffffffff1673ffffffffffffffffffffffffffffffffffffffff1681526020019081526020015f205f015411905092915050565b5f60025f8473ffffffffffffffffffffffffffffffffffffffff1673ffffffffffffffffffffffffffffffffffffffff1681526020019081526020015f2090505f5f90505b818054905081101561155f578273ffffffffffffffffffffffffffffffffffffffff1682828154811061142457611423611b5e565b5b905f5260205f20015f9054906101000a900473ffffffffffffffffffffffffffffffffffffffff1673ffffffffffffffffffffffffffffffffffffffff16036115525781600183805490506114799190611ac3565b8154811061148a57611489611b5e565b5b905f5260205f20015f9054906101000a900473ffffffffffffffffffffffffffffffffffffffff168282815481106114c5576114c4611b5e565b5b905f5260205f20015f6101000a81548173ffffffffffffffffffffffffffffffffffffffff021916908373ffffffffffffffffffffffffffffffffffffffff1602179055508180548061151b5761151a611d37565b5b600190038181905f5260205f20015f6101000a81549073ffffffffffffffffffffffffffffffffffffffff0219169055905561155f565b80806001019150506113ee565b505f60035f8573ffffffffffffffffffffffffffffffffffffffff1673ffffffffffffffffffffffffffffffffffffffff1681526020019081526020015f205f8473ffffffffffffffffffffffffffffffffffffffff1673ffffffffffffffffffffffffffffffffffffffff1681526020019081526020015f205f6101000a81548160ff021916908315150217905550505050565b5f5ffd5b5f73ffffffffffffffffffffffffffffffffffffffff82169050919050565b5f611621826115f8565b9050919050565b61163181611617565b811461163b575f5ffd5b50565b5f8135905061164c81611628565b92915050565b5f60208284031215611667576116666115f4565b5b5f6116748482850161163e565b91505092915050565b5f5f60408385031215611693576116926115f4565b5b5f6116a08582860161163e565b92505060206116b18582860161163e565b9150509250929050565b5f819050919050565b6116cd816116bb565b82525050565b5f6020820190506116e65f8301846116c4565b92915050565b5f81519050919050565b5f82825260208201905092915050565b5f819050602082019050919050565b61171e81611617565b82525050565b5f61172f8383611715565b60208301905092915050565b5f602082019050919050565b5f611751826116ec565b61175b81856116f6565b935061176683611706565b805f5b8381101561179657815161177d8882611724565b97506117888361173b565b925050600181019050611769565b5085935050505092915050565b5f6020820190508181035f8301526117bb8184611747565b905092915050565b6117cc816116bb565b81146117d6575f5ffd5b50565b5f813590506117e7816117c3565b92915050565b5f60208284031215611802576118016115f4565b5b5f61180f848285016117d9565b91505092915050565b5f8115159050919050565b61182c81611818565b82525050565b5f6020820190506118455f830184611823565b92915050565b5f82825260208201905092915050565b7f496e76616c6964206164647265737300000000000000000000000000000000005f82015250565b5f61188f600f8361184b565b915061189a8261185b565b602082019050919050565b5f6020820190508181035f8301526118bc81611883565b9050919050565b7f43616e6e6f742073756273637269626520746f20796f757273656c66000000005f82015250565b5f6118f7601c8361184b565b9150611902826118c3565b602082019050919050565b5f6020820190508181035f830152611924816118eb565b9050919050565b7f43726561746f72206e6f742072656769737465726564000000000000000000005f82015250565b5f61195f60168361184b565b915061196a8261192b565b602082019050919050565b5f6020820190508181035f83015261198c81611953565b9050919050565b7f43726561746f72207072696365206e6f742073657400000000000000000000005f82015250565b5f6119c760158361184b565b91506119d282611993565b602082019050919050565b5f6020820190508181035f8301526119f4816119bb565b9050919050565b7f496e636f727265637420737562736372697074696f6e207072696365000000005f82015250565b5f611a2f601c8361184b565b9150611a3a826119fb565b602082019050919050565b5f6020820190508181035f830152611a5c81611a23565b9050919050565b7f4e487b71000000000000000000000000000000000000000000000000000000005f52601160045260245ffd5b5f611a9a826116bb565b9150611aa5836116bb565b9250828201905080821115611abd57611abc611a63565b5b92915050565b5f611acd826116bb565b9150611ad8836116bb565b9250828203905081811115611af057611aef611a63565b5b92915050565b7f4e6f2061637469766520737562736372697074696f6e000000000000000000005f82015250565b5f611b2a60168361184b565b9150611b3582611af6565b602082019050919050565b5f6020820190508181035f830152611b5781611b1e565b9050919050565b7f4e487b71000000000000000000000000000000000000000000000000000000005f52603260045260245ffd5b5f611b95826116bb565b91507fffffffffffffffffffffffffffffffffffffffffffffffffffffffffffffffff8203611bc757611bc6611a63565b5b600182019050919050565b7f4e487b71000000000000000000000000000000000000000000000000000000005f52604160045260245ffd5b7f4e6f7420612063726561746f72000000000000000000000000000000000000005f82015250565b5f611c33600d8361184b565b9150611c3e82611bff565b602082019050919050565b5f6020820190508181035f830152611c6081611c27565b9050919050565b7f496e76616c6964207072696365000000000000000000000000000000000000005f82015250565b5f611c9b600d8361184b565b9150611ca682611c67565b602082019050919050565b5f6020820190508181035f830152611cc881611c8f565b9050919050565b7f416c72656164792063726561746f7200000000000000000000000000000000005f82015250565b5f611d03600f8361184b565b9150611d0e82611ccf565b602082019050919050565b5f6020820190508181035f830152611d3081611cf7565b9050919050565b7f4e487b71000000000000000000000000000000000000000000000000000000005f52603160045260245ffdfea2646970667358221220bb3b8ef524b286d374f4f18ed7f589567183b01408a7a8b1cd30ba0641e86fe164736f6c63430008220033",
  "linkReferences": {},
  "deployedLinkReferences": {}
}