{
  "_format": "hh-sol-artifact-1",
  "contractName": "CreatorSubscription",
  "sourceName": "contracts/CreatorSubscription.sol",
  "abi": [
    {
      "anonymous": false,
      "inputs": [
        {
          "indexed": true,
          "internalType": "address",
          "name": "creator",
          "type": "address"
        },
        {
          "indexed": false,
          "internalType": "uint256",
          "name": "price",
          "type": "uint256"
        }
      ],
      "name": "CreatorRegistered",
      "type": "event"
    },
    {
      "anonymous": false,
      "inputs": [
        {
          "indexed": true,
          "internalType": "address",
          "name": "user",
          "type": "address"
        },
        {
          "indexed": true,
          "internalType": "address",
          "name": "creator",
          "type": "address"
        },
        {
          "indexed": false,
          "internalType": "uint256",
          "name": "expiry",
          "type": "uint256"
        }
      ],
      "name": "Subscribed",
      "type": "event"
    },
    {
      "anonymous": false,
      "inputs": [
        {
          "indexed": true,
          "internalType": "address",
          "name": "creator",
          "type": "address"
        },
        {
          "indexed": true,
          "internalType": "address",
          "name": "subscriber",
          "type": "address"
        }
      ],
      "name": "Unsubscribed",
      "type": "event"
    },
    {
      "inputs": [
        {
          "internalType": "address",
          "name": "creator",
          "type": "address"
        }
      ],
      "name": "creatorPrice",
      "outputs": [
        {
          "internalType": "uint256",
          "name": "",
          "type": "uint256"
        }
      ],
      "stateMutability": "view",
      "type": "function"
    },
    {
      "inputs": [
        {
          "internalType": "address",
          "name": "user",
          "type": "address"
        }
      ],
      "name": "getActiveSubscribedCreators",
      "outputs": [
        {
          "internalType": "address[]",
          "name": "",
          "type": "address[]"
        }
      ],
      "stateMutability": "view",
      "type": "function"
    },
    {
      "inputs": [
        {
          "internalType": "address",
          "name": "user",
          "type": "address"
        }
      ],
      "name": "getSubscribedCreators",
      "outputs": [
        {
          "internalType": "address[]",
          "name": "",
          "type": "address[]"
        }
      ],
      "stateMutability": "view",
      "type": "function"
    },
    {
      "inputs": [
        {
          "internalType": "address",
          "name": "user",
          "type": "address"
        }
      ],
      "name": "isCreator",
      "outputs": [
        {
          "internalType": "bool",
          "name": "",
          "type": "bool"
        }
      ],
      "stateMutability": "view",
      "type": "function"
    },
    {
      "inputs": [
        {
          "internalType": "address",
          "name": "user",
          "type": "address"
        },
        {
          "internalType": "address",
          "name": "creator",
          "type": "address"
        }
      ],
      "name": "isSubscribed",
      "outputs": [
        {
          "internalType": "bool",
          "name": "",
          "type": "bool"
        }
      ],
      "stateMutability": "view",
      "type": "function"
    },
    {
      "inputs": [
        {
          "internalType": "uint256",
          "name": "_monthlyPrice",
          "type": "uint256"
        }
      ],
      "name": "registerCreator",
      "outputs": [],
      "stateMutability": "nonpayable",
      "type": "function"
    },
    {
      "inputs": [
        {
          "internalType": "address",
          "name": "creator",
          "type": "address"
        }
      ],
      "name": "subscribe",
      "outputs": [],
      "stateMutability": "payable",
      "type": "function"
    },
    {
      "inputs": [
        {
          "internalType": "address",
          "name": "user",
          "type": "address"
        },
        {
          "internalType": "address",
          "name": "creator",
          "type": "address"
        }
      ],
      "name": "subscriptionTimeLeft",
      "outputs": [
        {
          "internalType": "uint256",
          "name": "",
          "type": "uint256"
        }
      ],
      "stateMutability": "view",
      "type": "function"
    },
    {
      "inputs": [
        {
          "internalType": "address",
          "name": "creator",
          "type": "address"
        }
      ],
      "name": "unsubscribe",
      "outputs": [],
      "stateMutability": "nonpayable",
      "type": "function"
    }
  ],
  "bytecode": "0x6080604052348015600e575f5ffd5b50610c638061001c5f395ff3fe608060405260043610610084575f3560e01c8063a02c1f4511610057578063a02c1f451461011a578063bb88864914610139578063bdca7d7714610158578063efd4606514610177578063f6416ef6146101be575f5ffd5b806341a7726a146100885780634f52ed501461009d5780637262561c146100cf57806392ac03b1146100ee575b5f5ffd5b61009b610096366004610afe565b610204565b005b3480156100a8575f5ffd5b506100bc6100b7366004610b17565b61047f565b6040519081526020015b60405180910390f35b3480156100da575f5ffd5b5061009b6100e9366004610afe565b6104ec565b3480156100f9575f5ffd5b5061010d610108366004610afe565b6105bb565b6040516100c69190610b48565b348015610125575f5ffd5b5061010d610134366004610afe565b61062e565b348015610144575f5ffd5b506100bc610153366004610afe565b610834565b348015610163575f5ffd5b5061009b610172366004610b88565b6108a9565b348015610182575f5ffd5b506101ae610191366004610afe565b6001600160a01b03165f9081526020819052604090205460ff1690565b60405190151581526020016100c6565b3480156101c9575f5ffd5b506101ae6101d8366004610b17565b6001600160a01b039182165f908152600160209081526040808320939094168252919091522054421090565b6001600160a01b0381165f9081526020819052604090205460ff166102605760405162461bcd60e51b815260206004820152600d60248201526c2737ba10309031b932b0ba37b960991b60448201526064015b60405180910390fd5b6001600160a01b0381165f9081526020819052604090206001015434146102b85760405162461bcd60e51b815260206004820152600c60248201526b15dc9bdb99c8185b5bdd5b9d60a21b6044820152606401610257565b336001600160a01b038216036103105760405162461bcd60e51b815260206004820152601c60248201527f43616e6e6f742073756273637269626520746f20796f757273656c66000000006044820152606401610257565b335f9081526001602090815260408083206001600160a01b03851684529091528120549042821115610350576103498262278d00610bb3565b9050610360565b61035d4262278d00610bb3565b90505b6040805160208082018352838252335f818152600183528481206001600160a01b038916808352908452858220945190945590815260038252838120928152919052205460ff1661040757335f8181526002602090815260408083208054600180820183559185528385200180546001600160a01b0319166001600160a01b038a1690811790915594845260038352818420948452939091529020805460ff191690911790555b6040516001600160a01b038416903480156108fc02915f818181858888f19350505050158015610439573d5f5f3e3d5ffd5b506040518181526001600160a01b0384169033907f1299b0ad0a8e7c2403716ae6507195ba96bd8cac7f49d8c129e18f9ae51374f09060200160405180910390a3505050565b6001600160a01b038083165f90815260016020908152604080832093851683529290529081205442106104b357505f6104e6565b6001600160a01b038084165f908152600160209081526040808320938616835292905220546104e3904290610bc6565b90505b92915050565b335f9081526001602090815260408083206001600160a01b038516845290915290205442106105565760405162461bcd60e51b815260206004820152601660248201527527379030b1ba34bb329039bab139b1b934b83a34b7b760511b6044820152606401610257565b335f8181526001602090815260408083206001600160a01b038616845290915281205561058390826109a5565b60405133906001600160a01b038316907f7773c30acd0762ed6b4b92a9aa2c6b3c074e29ad93b334cbed8ba807c596f13a905f90a350565b6001600160a01b0381165f9081526002602090815260409182902080548351818402810184019094528084526060939283018282801561062257602002820191905f5260205f20905b81546001600160a01b03168152600190910190602001808311610604575b50505050509050919050565b6001600160a01b0381165f90815260026020908152604080832080548251818502810185019093528083526060949383018282801561069457602002820191905f5260205f20905b81546001600160a01b03168152600190910190602001808311610676575b509394505f935083925050505b825181101561071e576001600160a01b0385165f90815260016020526040812084514292908690859081106106d8576106d8610bd9565b60200260200101516001600160a01b03166001600160a01b031681526020019081526020015f205f01541115610716578161071281610bed565b9250505b6001016106a1565b505f8167ffffffffffffffff81111561073957610739610c05565b604051908082528060200260200182016040528015610762578160200160208202803683370190505b5090505f805b8451811015610829576001600160a01b0387165f908152600160205260408120865142929088908590811061079f5761079f610bd9565b60200260200101516001600160a01b03166001600160a01b031681526020019081526020015f205f01541115610821578481815181106107e1576107e1610bd9565b60200260200101518383815181106107fb576107fb610bd9565b6001600160a01b03909216602092830291909101909101528161081d81610bed565b9250505b600101610768565b509095945050505050565b6001600160a01b0381165f9081526020819052604081205460ff1661088b5760405162461bcd60e51b815260206004820152600d60248201526c2737ba10309031b932b0ba37b960991b6044820152606401610257565b506001600160a01b03165f9081526020819052604090206001015490565b335f9081526020819052604090205460ff16156108fa5760405162461bcd60e51b815260206004820152600f60248201526e20b63932b0b23c9031b932b0ba37b960891b6044820152606401610257565b5f81116109395760405162461bcd60e51b815260206004820152600d60248201526c496e76616c696420707269636560981b6044820152606401610257565b60408051808201825260018082526020808301858152335f8181528084528690209451855460ff19169015151785559051939092019290925591518381527f37289e7324e447be4ede738be5d6ceed835c3fae1e9ca953bfe1bd5c705499e7910160405180910390a250565b6001600160a01b0382165f908152600260205260408120905b8154811015610ab157826001600160a01b03168282815481106109e3576109e3610bd9565b5f918252602090912001546001600160a01b031603610aa95781548290610a0c90600190610bc6565b81548110610a1c57610a1c610bd9565b905f5260205f20015f9054906101000a90046001600160a01b0316828281548110610a4957610a49610bd9565b905f5260205f20015f6101000a8154816001600160a01b0302191690836001600160a01b0316021790555081805480610a8457610a84610c19565b5f8281526020902081015f1990810180546001600160a01b0319169055019055610ab1565b6001016109be565b50506001600160a01b039182165f9081526003602090815260408083209390941682529190915220805460ff19169055565b80356001600160a01b0381168114610af9575f5ffd5b919050565b5f60208284031215610b0e575f5ffd5b6104e382610ae3565b5f5f60408385031215610b28575f5ffd5b610b3183610ae3565b9150610b3f60208401610ae3565b90509250929050565b602080825282518282018190525f918401906040840190835b818110156108295783516001600160a01b0316835260209384019390920191600101610b61565b5f60208284031215610b98575f5ffd5b5035919050565b634e487b7160e01b5f52601160045260245ffd5b808201808211156104e6576104e6610b9f565b818103818111156104e6576104e6610b9f565b634e487b7160e01b5f52603260045260245ffd5b5f60018201610bfe57610bfe610b9f565b5060010190565b634e487b7160e01b5f52604160045260245ffd5b634e487b7160e01b5f52603160045260245ffdfea26469706673582212206de2c4bd5e4c6b92c8253571529ce68221159568cfe5c19e6a028ac584488ae564736f6c634300081c0033",
  "linkReferences": {},
  "deployedLinkReferences": {}
}