{
  "_format": "hh-sol-artifact-1",
  "contractName": "CreatorSubscription",
  "sourceName": "contracts/CreatorSubscription.sol",
  "abi": [
    {
      "anonymous": false,
      "inputs": [
        {
          "indexed": true,
          "internalType": "address",
          "name": "user",
          "type": "address"
        },
        {
          "indexed": true,
          "internalType": "address",
          "name": "creator",
          "type": "address"
        },
        {
          "indexed": false,
          "internalType": "uint256",
          "name": "expiry",
          "type": "uint256"
        }
      ],
      "name": "Subscribed",
      "type": "event"
    },
    {
      "anonymous": false,
      "inputs": [
        {
          "indexed": true,
          "internalType": "address",
          "name": "creator",
          "type": "address"
        },
        {
          "indexed": true,
          "internalType": "address",
          "name": "subscriber",
          "type": "address"
        }
      ],
      "name": "Unsubscribed",
      "type": "event"
    },
    {
      "inputs": [],
      "name": "SUBSCRIPTION_PRICE",
      "outputs": [
        {
          "internalType": "uint256",
          "name": "",
          "type": "uint256"
        }
      ],
      "stateMutability": "view",
      "type": "function"
    },
    {
      "inputs": [
        {
          "internalType": "address",
          "name": "",
          "type": "address"
        }
      ],
      "name": "creatorPrice",
      "outputs": [
        {
          "internalType": "uint256",
          "name": "",
          "type": "uint256"
        }
      ],
      "stateMutability": "pure",
      "type": "function"
    },
    {
      "inputs": [
        {
          "internalType": "address",
          "name": "user",
          "type": "address"
        }
      ],
      "name": "getActiveSubscribedCreators",
      "outputs": [
        {
          "internalType": "address[]",
          "name": "",
          "type": "address[]"
        }
      ],
      "stateMutability": "view",
      "type": "function"
    },
    {
      "inputs": [
        {
          "internalType": "address",
          "name": "user",
          "type": "address"
        }
      ],
      "name": "getSubscribedCreators",
      "outputs": [
        {
          "internalType": "address[]",
          "name": "",
          "type": "address[]"
        }
      ],
      "stateMutability": "view",
      "type": "function"
    },
    {
      "inputs": [
        {
          "internalType": "address",
          "name": "",
          "type": "address"
        }
      ],
      "name": "isCreator",
      "outputs": [
        {
          "internalType": "bool",
          "name": "",
          "type": "bool"
        }
      ],
      "stateMutability": "pure",
      "type": "function"
    },
    {
      "inputs": [
        {
          "internalType": "address",
          "name": "user",
          "type": "address"
        },
        {
          "internalType": "address",
          "name": "creator",
          "type": "address"
        }
      ],
      "name": "isSubscribed",
      "outputs": [
        {
          "internalType": "bool",
          "name": "",
          "type": "bool"
        }
      ],
      "stateMutability": "view",
      "type": "function"
    },
    {
      "inputs": [
        {
          "internalType": "address",
          "name": "creator",
          "type": "address"
        }
      ],
      "name": "subscribe",
      "outputs": [],
      "stateMutability": "payable",
      "type": "function"
    },
    {
      "inputs": [
        {
          "internalType": "address",
          "name": "user",
          "type": "address"
        },
        {
          "internalType": "address",
          "name": "creator",
          "type": "address"
        }
      ],
      "name": "subscriptionTimeLeft",
      "outputs": [
        {
          "internalType": "uint256",
          "name": "",
          "type": "uint256"
        }
      ],
      "stateMutability": "view",
      "type": "function"
    },
    {
      "inputs": [
        {
          "internalType": "address",
          "name": "creator",
          "type": "address"
        }
      ],
      "name": "unsubscribe",
      "outputs": [],
      "stateMutability": "nonpayable",
      "type": "function"
    }
  ],
  "bytecode": "0x608060405260043610610085575f3560e01c806392ac03b11161005857806392ac03b114610133578063a02c1f451461016f578063bb888649146101ab578063efd46065146101e7578063f6416ef61461022357610085565b806341a7726a146100895780634f52ed50146100a55780636a890cb2146100e15780637262561c1461010b575b5f5ffd5b6100a3600480360381019061009e9190611113565b61025f565b005b3480156100b0575f5ffd5b506100cb60048036038101906100c6919061113e565b610727565b6040516100d89190611194565b60405180910390f35b3480156100ec575f5ffd5b506100f561083e565b6040516101029190611194565b60405180910390f35b348015610116575f5ffd5b50610131600480360381019061012c9190611113565b61084a565b005b34801561013e575f5ffd5b5061015960048036038101906101549190611113565b6109ec565b6040516101669190611264565b60405180910390f35b34801561017a575f5ffd5b5061019560048036038101906101909190611113565b610ab4565b6040516101a29190611264565b60405180910390f35b3480156101b6575f5ffd5b506101d160048036038101906101cc9190611113565b610dca565b6040516101de9190611194565b60405180910390f35b3480156101f2575f5ffd5b5061020d60048036038101906102089190611113565b610ddb565b60405161021a919061129e565b60405180910390f35b34801561022e575f5ffd5b506102496004803603810190610244919061113e565b610de5565b604051610256919061129e565b60405180910390f35b5f73ffffffffffffffffffffffffffffffffffffffff168173ffffffffffffffffffffffffffffffffffffffff16036102cd576040517f08c379a00000000000000000000000000000000000000000000000000000000081526004016102c490611311565b60405180910390fd5b3373ffffffffffffffffffffffffffffffffffffffff168173ffffffffffffffffffffffffffffffffffffffff160361033b576040517f08c379a000000000000000000000000000000000000000000000000000000000815260040161033290611379565b60405180910390fd5b67016345785d8a00003414610385576040517f08c379a000000000000000000000000000000000000000000000000000000000815260040161037c906113e1565b60405180910390fd5b5f5f5f3373ffffffffffffffffffffffffffffffffffffffff1673ffffffffffffffffffffffffffffffffffffffff1681526020019081526020015f205f8373ffffffffffffffffffffffffffffffffffffffff1673ffffffffffffffffffffffffffffffffffffffff1681526020019081526020015f205f015490505f428211156104215762278d008261041a919061142c565b9050610433565b62278d0042610430919061142c565b90505b6040518060200160405280828152505f5f3373ffffffffffffffffffffffffffffffffffffffff1673ffffffffffffffffffffffffffffffffffffffff1681526020019081526020015f205f8573ffffffffffffffffffffffffffffffffffffffff1673ffffffffffffffffffffffffffffffffffffffff1681526020019081526020015f205f820151815f015590505060025f3373ffffffffffffffffffffffffffffffffffffffff1673ffffffffffffffffffffffffffffffffffffffff1681526020019081526020015f205f8473ffffffffffffffffffffffffffffffffffffffff1673ffffffffffffffffffffffffffffffffffffffff1681526020019081526020015f205f9054906101000a900460ff166106795760015f3373ffffffffffffffffffffffffffffffffffffffff1673ffffffffffffffffffffffffffffffffffffffff1681526020019081526020015f2083908060018154018082558091505060019003905f5260205f20015f9091909190916101000a81548173ffffffffffffffffffffffffffffffffffffffff021916908373ffffffffffffffffffffffffffffffffffffffff160217905550600160025f3373ffffffffffffffffffffffffffffffffffffffff1673ffffffffffffffffffffffffffffffffffffffff1681526020019081526020015f205f8573ffffffffffffffffffffffffffffffffffffffff1673ffffffffffffffffffffffffffffffffffffffff1681526020019081526020015f205f6101000a81548160ff0219169083151502179055505b8273ffffffffffffffffffffffffffffffffffffffff166108fc3490811502906040515f60405180830381858888f193505050501580156106bc573d5f5f3e3d5ffd5b508273ffffffffffffffffffffffffffffffffffffffff163373ffffffffffffffffffffffffffffffffffffffff167f1299b0ad0a8e7c2403716ae6507195ba96bd8cac7f49d8c129e18f9ae51374f08360405161071a9190611194565b60405180910390a3505050565b5f425f5f8573ffffffffffffffffffffffffffffffffffffffff1673ffffffffffffffffffffffffffffffffffffffff1681526020019081526020015f205f8473ffffffffffffffffffffffffffffffffffffffff1673ffffffffffffffffffffffffffffffffffffffff1681526020019081526020015f205f0154116107b0575f9050610838565b425f5f8573ffffffffffffffffffffffffffffffffffffffff1673ffffffffffffffffffffffffffffffffffffffff1681526020019081526020015f205f8473ffffffffffffffffffffffffffffffffffffffff1673ffffffffffffffffffffffffffffffffffffffff1681526020019081526020015f205f0154610835919061145f565b90505b92915050565b67016345785d8a000081565b425f5f3373ffffffffffffffffffffffffffffffffffffffff1673ffffffffffffffffffffffffffffffffffffffff1681526020019081526020015f205f8373ffffffffffffffffffffffffffffffffffffffff1673ffffffffffffffffffffffffffffffffffffffff1681526020019081526020015f205f015411610905576040517f08c379a00000000000000000000000000000000000000000000000000000000081526004016108fc906114dc565b60405180910390fd5b5f5f3373ffffffffffffffffffffffffffffffffffffffff1673ffffffffffffffffffffffffffffffffffffffff1681526020019081526020015f205f8273ffffffffffffffffffffffffffffffffffffffff1673ffffffffffffffffffffffffffffffffffffffff1681526020019081526020015f205f5f82015f9055505061098f3382610e6a565b3373ffffffffffffffffffffffffffffffffffffffff168173ffffffffffffffffffffffffffffffffffffffff167f7773c30acd0762ed6b4b92a9aa2c6b3c074e29ad93b334cbed8ba807c596f13a60405160405180910390a350565b606060015f8373ffffffffffffffffffffffffffffffffffffffff1673ffffffffffffffffffffffffffffffffffffffff1681526020019081526020015f20805480602002602001604051908101604052809291908181526020018280548015610aa857602002820191905f5260205f20905b815f9054906101000a900473ffffffffffffffffffffffffffffffffffffffff1673ffffffffffffffffffffffffffffffffffffffff1681526020019060010190808311610a5f575b50505050509050919050565b60605f60015f8473ffffffffffffffffffffffffffffffffffffffff1673ffffffffffffffffffffffffffffffffffffffff1681526020019081526020015f20805480602002602001604051908101604052809291908181526020018280548015610b7157602002820191905f5260205f20905b815f9054906101000a900473ffffffffffffffffffffffffffffffffffffffff1673ffffffffffffffffffffffffffffffffffffffff1681526020019060010190808311610b28575b505050505090505f5f90505f5f90505b8251811015610c4157425f5f8773ffffffffffffffffffffffffffffffffffffffff1673ffffffffffffffffffffffffffffffffffffffff1681526020019081526020015f205f858481518110610bdb57610bda6114fa565b5b602002602001015173ffffffffffffffffffffffffffffffffffffffff1673ffffffffffffffffffffffffffffffffffffffff1681526020019081526020015f205f01541115610c34578180610c3090611527565b9250505b8080600101915050610b81565b505f8167ffffffffffffffff811115610c5d57610c5c61156e565b5b604051908082528060200260200182016040528015610c8b5781602001602082028036833780820191505090505b5090505f5f90505f5f90505b8451811015610dbd57425f5f8973ffffffffffffffffffffffffffffffffffffffff1673ffffffffffffffffffffffffffffffffffffffff1681526020019081526020015f205f878481518110610cf157610cf06114fa565b5b602002602001015173ffffffffffffffffffffffffffffffffffffffff1673ffffffffffffffffffffffffffffffffffffffff1681526020019081526020015f205f01541115610db057848181518110610d4e57610d4d6114fa565b5b6020026020010151838380610d6290611527565b945081518110610d7557610d746114fa565b5b602002602001019073ffffffffffffffffffffffffffffffffffffffff16908173ffffffffffffffffffffffffffffffffffffffff16815250505b8080600101915050610c97565b5081945050505050919050565b5f67016345785d8a00009050919050565b5f60019050919050565b5f425f5f8573ffffffffffffffffffffffffffffffffffffffff1673ffffffffffffffffffffffffffffffffffffffff1681526020019081526020015f205f8473ffffffffffffffffffffffffffffffffffffffff1673ffffffffffffffffffffffffffffffffffffffff1681526020019081526020015f205f015411905092915050565b5f60015f8473ffffffffffffffffffffffffffffffffffffffff1673ffffffffffffffffffffffffffffffffffffffff1681526020019081526020015f2090505f5f90505b8180549050811015611020578273ffffffffffffffffffffffffffffffffffffffff16828281548110610ee557610ee46114fa565b5b905f5260205f20015f9054906101000a900473ffffffffffffffffffffffffffffffffffffffff1673ffffffffffffffffffffffffffffffffffffffff1603611013578160018380549050610f3a919061145f565b81548110610f4b57610f4a6114fa565b5b905f5260205f20015f9054906101000a900473ffffffffffffffffffffffffffffffffffffffff16828281548110610f8657610f856114fa565b5b905f5260205f20015f6101000a81548173ffffffffffffffffffffffffffffffffffffffff021916908373ffffffffffffffffffffffffffffffffffffffff16021790555081805480610fdc57610fdb61159b565b5b600190038181905f5260205f20015f6101000a81549073ffffffffffffffffffffffffffffffffffffffff02191690559055611020565b8080600101915050610eaf565b505f60025f8573ffffffffffffffffffffffffffffffffffffffff1673ffffffffffffffffffffffffffffffffffffffff1681526020019081526020015f205f8473ffffffffffffffffffffffffffffffffffffffff1673ffffffffffffffffffffffffffffffffffffffff1681526020019081526020015f205f6101000a81548160ff021916908315150217905550505050565b5f5ffd5b5f73ffffffffffffffffffffffffffffffffffffffff82169050919050565b5f6110e2826110b9565b9050919050565b6110f2816110d8565b81146110fc575f5ffd5b50565b5f8135905061110d816110e9565b92915050565b5f60208284031215611128576111276110b5565b5b5f611135848285016110ff565b91505092915050565b5f5f60408385031215611154576111536110b5565b5b5f611161858286016110ff565b9250506020611172858286016110ff565b9150509250929050565b5f819050919050565b61118e8161117c565b82525050565b5f6020820190506111a75f830184611185565b92915050565b5f81519050919050565b5f82825260208201905092915050565b5f819050602082019050919050565b6111df816110d8565b82525050565b5f6111f083836111d6565b60208301905092915050565b5f602082019050919050565b5f611212826111ad565b61121c81856111b7565b9350611227836111c7565b805f5b8381101561125757815161123e88826111e5565b9750611249836111fc565b92505060018101905061122a565b5085935050505092915050565b5f6020820190508181035f83015261127c8184611208565b905092915050565b5f8115159050919050565b61129881611284565b82525050565b5f6020820190506112b15f83018461128f565b92915050565b5f82825260208201905092915050565b7f496e76616c6964206164647265737300000000000000000000000000000000005f82015250565b5f6112fb600f836112b7565b9150611306826112c7565b602082019050919050565b5f6020820190508181035f830152611328816112ef565b9050919050565b7f43616e6e6f742073756273637269626520746f20796f757273656c66000000005f82015250565b5f611363601c836112b7565b915061136e8261132f565b602082019050919050565b5f6020820190508181035f83015261139081611357565b9050919050565b7f4d7573742073656e642065786163746c7920302e3120455448000000000000005f82015250565b5f6113cb6019836112b7565b91506113d682611397565b602082019050919050565b5f6020820190508181035f8301526113f8816113bf565b9050919050565b7f4e487b71000000000000000000000000000000000000000000000000000000005f52601160045260245ffd5b5f6114368261117c565b91506114418361117c565b9250828201905080821115611459576114586113ff565b5b92915050565b5f6114698261117c565b91506114748361117c565b925082820390508181111561148c5761148b6113ff565b5b92915050565b7f4e6f2061637469766520737562736372697074696f6e000000000000000000005f82015250565b5f6114c66016836112b7565b91506114d182611492565b602082019050919050565b5f6020820190508181035f8301526114f3816114ba565b9050919050565b7f4e487b71000000000000000000000000000000000000000000000000000000005f52603260045260245ffd5b5f6115318261117c565b91507fffffffffffffffffffffffffffffffffffffffffffffffffffffffffffffffff8203611563576115626113ff565b5b600182019050919050565b7f4e487b71000000000000000000000000000000000000000000000000000000005f52604160045260245ffd5b7f4e487b71000000000000000000000000000000000000000000000000000000005f52603160045260245ffdfea2646970667358221220c63cbe114fb5da7447e9de30e3da92338b7b51e8f1007e2f0916b61d6976ca2164736f6c63430008220033",
  "linkReferences": {},
  "deployedLinkReferences": {}
}