{
  "_format": "hh-sol-artifact-1",
  "contractName": "Profile",
  "sourceName": "contracts/Profile.sol",
  "abi": [
    {
      "inputs": [
        {
          "internalType": "address",
          "name": "_subscriptionContract",
          "type": "address"
        }
      ],
      "stateMutability": "nonpayable",
      "type": "constructor"
    },
    {
      "inputs": [
        {
          "internalType": "string",
          "name": "_name",
          "type": "string"
        },
        {
          "internalType": "string",
          "name": "_avatar",
          "type": "string"
        },
        {
          "internalType": "string",
          "name": "_bio",
          "type": "string"
        }
      ],
      "name": "createOrUpdateProfile",
      "outputs": [],
      "stateMutability": "nonpayable",
      "type": "function"
    },
    {
      "inputs": [
        {
          "internalType": "address",
          "name": "creator",
          "type": "address"
        }
      ],
      "name": "followCreator",
      "outputs": [],
      "stateMutability": "nonpayable",
      "type": "function"
    },
    {
      "inputs": [
        {
          "internalType": "address",
          "name": "",
          "type": "address"
        }
      ],
      "name": "followerCount",
      "outputs": [
        {
          "internalType": "uint256",
          "name": "",
          "type": "uint256"
        }
      ],
      "stateMutability": "view",
      "type": "function"
    },
    {
      "inputs": [
        {
          "internalType": "address",
          "name": "user",
          "type": "address"
        }
      ],
      "name": "getProfile",
      "outputs": [
        {
          "internalType": "string",
          "name": "name",
          "type": "string"
        },
        {
          "internalType": "string",
          "name": "avatar",
          "type": "string"
        },
        {
          "internalType": "string",
          "name": "bio",
          "type": "string"
        },
        {
          "internalType": "bool",
          "name": "isCreator",
          "type": "bool"
        },
        {
          "internalType": "uint256",
          "name": "followers",
          "type": "uint256"
        }
      ],
      "stateMutability": "view",
      "type": "function"
    },
    {
      "inputs": [
        {
          "internalType": "address",
          "name": "",
          "type": "address"
        },
        {
          "internalType": "address",
          "name": "",
          "type": "address"
        }
      ],
      "name": "isFollowing",
      "outputs": [
        {
          "internalType": "bool",
          "name": "",
          "type": "bool"
        }
      ],
      "stateMutability": "view",
      "type": "function"
    },
    {
      "inputs": [
        {
          "internalType": "address",
          "name": "user",
          "type": "address"
        },
        {
          "internalType": "address",
          "name": "creator",
          "type": "address"
        }
      ],
      "name": "isUserFollowing",
      "outputs": [
        {
          "internalType": "bool",
          "name": "",
          "type": "bool"
        }
      ],
      "stateMutability": "view",
      "type": "function"
    },
    {
      "inputs": [
        {
          "internalType": "address",
          "name": "user",
          "type": "address"
        }
      ],
      "name": "profileExists",
      "outputs": [
        {
          "internalType": "bool",
          "name": "",
          "type": "bool"
        }
      ],
      "stateMutability": "view",
      "type": "function"
    },
    {
      "inputs": [],
      "name": "subscriptionContract",
      "outputs": [
        {
          "internalType": "contract ICreatorSubscription",
          "name": "",
          "type": "address"
        }
      ],
      "stateMutability": "view",
      "type": "function"
    },
    {
      "inputs": [
        {
          "internalType": "address",
          "name": "creator",
          "type": "address"
        }
      ],
      "name": "unfollowCreator",
      "outputs": [],
      "stateMutability": "nonpayable",
      "type": "function"
    }
  ],
  "bytecode": "0x6080604052348015600e575f5ffd5b50604051610c3a380380610c3a833981016040819052602b91604f565b600380546001600160a01b0319166001600160a01b0392909216919091179055607a565b5f60208284031215605e575f5ffd5b81516001600160a01b03811681146073575f5ffd5b9392505050565b610bb3806100875f395ff3fe608060405234801561000f575f5ffd5b5060043610610090575f3560e01c806330b3a8901161006357806330b3a8901461014b5780634d90bc3714610178578063639ab2ce1461018b57806369e2d90d1461019e57806399ec3a42146101c9575f5ffd5b8063021aa4421461009457806305cfa06f146100e45780630f53a470146101125780631819619114610136575b5f5ffd5b6100cf6100a236600461081a565b6001600160a01b039182165f90815260016020908152604080832093909416825291909152205460ff1690565b60405190151581526020015b60405180910390f35b6100cf6100f236600461084b565b6001600160a01b03165f9081526020819052604090206003015460ff1690565b61012561012036600461084b565b6101f6565b6040516100db959493929190610899565b61014961014436600461084b565b6104e4565b005b61016a61015936600461084b565b60026020525f908152604090205481565b6040519081526020016100db565b61014961018636600461084b565b61058b565b61014961019936600461092b565b6106da565b6003546101b1906001600160a01b031681565b6040516001600160a01b0390911681526020016100db565b6100cf6101d736600461081a565b600160209081525f928352604080842090915290825290205460ff1681565b60608060605f5f5f5f5f886001600160a01b03166001600160a01b031681526020019081526020015f206040518060800160405290815f8201805461023a906109ca565b80601f0160208091040260200160405190810160405280929190818152602001828054610266906109ca565b80156102b15780601f10610288576101008083540402835291602001916102b1565b820191905f5260205f20905b81548152906001019060200180831161029457829003601f168201915b505050505081526020016001820180546102ca906109ca565b80601f01602080910402602001604051908101604052809291908181526020018280546102f6906109ca565b80156103415780601f1061031857610100808354040283529160200191610341565b820191905f5260205f20905b81548152906001019060200180831161032457829003601f168201915b5050505050815260200160028201805461035a906109ca565b80601f0160208091040260200160405190810160405280929190818152602001828054610386906109ca565b80156103d15780601f106103a8576101008083540402835291602001916103d1565b820191905f5260205f20905b8154815290600101906020018083116103b457829003601f168201915b50505091835250506003919091015460ff161515602090910152606081015190915061043d5760405162461bcd60e51b8152602060048201526016602482015275141c9bd99a5b1948191bd95cc81b9bdd08195e1a5cdd60521b60448201526064015b60405180910390fd5b80516020820151604080840151600354915163efd4606560e01b81526001600160a01b038c811660048301529192919091169063efd4606590602401602060405180830381865afa158015610494573d5f5f3e3d5ffd5b505050506040513d601f19601f820116820180604052508101906104b89190610a02565b6001600160a01b039a909a165f90815260026020526040902054929a9199909850965090945092505050565b335f9081526001602090815260408083206001600160a01b038516845290915290205460ff166105465760405162461bcd60e51b815260206004820152600d60248201526c4e6f7420666f6c6c6f77696e6760981b6044820152606401610434565b335f9081526001602090815260408083206001600160a01b03851684528252808320805460ff191690556002909152812080549161058383610a35565b919050555050565b60035460405163efd4606560e01b81526001600160a01b0383811660048301529091169063efd4606590602401602060405180830381865afa1580156105d3573d5f5f3e3d5ffd5b505050506040513d601f19601f820116820180604052508101906105f79190610a02565b6106335760405162461bcd60e51b815260206004820152600d60248201526c2737ba10309031b932b0ba37b960991b6044820152606401610434565b335f9081526001602090815260408083206001600160a01b038516845290915290205460ff161561069a5760405162461bcd60e51b8152602060048201526011602482015270416c726561647920666f6c6c6f77696e6760781b6044820152606401610434565b335f9081526001602081815260408084206001600160a01b03861685528252808420805460ff191690931790925560029052812080549161058383610a4a565b604051806080016040528087878080601f0160208091040260200160405190810160405280939291908181526020018383808284375f92019190915250505090825250604080516020601f8801819004810282018101909252868152918101919087908790819084018382808284375f92019190915250505090825250604080516020601f8601819004810282018101909252848152918101919085908590819084018382808284375f92018290525093855250506001602093840152503381529081905260409020815181906107b19082610ac2565b50602082015160018201906107c69082610ac2565b50604082015160028201906107db9082610ac2565b50606091909101516003909101805460ff1916911515919091179055505050505050565b80356001600160a01b0381168114610815575f5ffd5b919050565b5f5f6040838503121561082b575f5ffd5b610834836107ff565b9150610842602084016107ff565b90509250929050565b5f6020828403121561085b575f5ffd5b610864826107ff565b9392505050565b5f81518084528060208401602086015e5f602082860101526020601f19601f83011685010191505092915050565b60a081525f6108ab60a083018861086b565b82810360208401526108bd818861086b565b905082810360408401526108d1818761086b565b94151560608401525050608001529392505050565b5f5f83601f8401126108f6575f5ffd5b50813567ffffffffffffffff81111561090d575f5ffd5b602083019150836020828501011115610924575f5ffd5b9250929050565b5f5f5f5f5f5f60608789031215610940575f5ffd5b863567ffffffffffffffff811115610956575f5ffd5b61096289828a016108e6565b909750955050602087013567ffffffffffffffff811115610981575f5ffd5b61098d89828a016108e6565b909550935050604087013567ffffffffffffffff8111156109ac575f5ffd5b6109b889828a016108e6565b979a9699509497509295939492505050565b600181811c908216806109de57607f821691505b6020821081036109fc57634e487b7160e01b5f52602260045260245ffd5b50919050565b5f60208284031215610a12575f5ffd5b81518015158114610864575f5ffd5b634e487b7160e01b5f52601160045260245ffd5b5f81610a4357610a43610a21565b505f190190565b5f60018201610a5b57610a5b610a21565b5060010190565b634e487b7160e01b5f52604160045260245ffd5b601f821115610abd57805f5260205f20601f840160051c81016020851015610a9b5750805b601f840160051c820191505b81811015610aba575f8155600101610aa7565b50505b505050565b815167ffffffffffffffff811115610adc57610adc610a62565b610af081610aea84546109ca565b84610a76565b6020601f821160018114610b22575f8315610b0b5750848201515b5f19600385901b1c1916600184901b178455610aba565b5f84815260208120601f198516915b82811015610b515787850151825560209485019460019092019101610b31565b5084821015610b6e57868401515f19600387901b60f8161c191681555b50505050600190811b0190555056fea2646970667358221220b4f139cef2f5f53e87fab895a4eece979bb2b144caaa285ebbde4b075a652e0b64736f6c634300081c0033",
  "linkReferences": {},
  "deployedLinkReferences": {}
}