{
  "_format": "hh-sol-artifact-1",
  "contractName": "SparkMint",
  "sourceName": "contracts/SparkMint.sol",
  "abi": [
    {
      "inputs": [
        {
          "internalType": "address",
          "name": "_subscriptionContract",
          "type": "address"
        }
      ],
      "stateMutability": "nonpayable",
      "type": "constructor"
    },
    {
      "inputs": [
        {
          "internalType": "address",
          "name": "sender",
          "type": "address"
        },
        {
          "internalType": "uint256",
          "name": "tokenId",
          "type": "uint256"
        },
        {
          "internalType": "address",
          "name": "owner",
          "type": "address"
        }
      ],
      "name": "ERC721IncorrectOwner",
      "type": "error"
    },
    {
      "inputs": [
        {
          "internalType": "address",
          "name": "operator",
          "type": "address"
        },
        {
          "internalType": "uint256",
          "name": "tokenId",
          "type": "uint256"
        }
      ],
      "name": "ERC721InsufficientApproval",
      "type": "error"
    },
    {
      "inputs": [
        {
          "internalType": "address",
          "name": "approver",
          "type": "address"
        }
      ],
      "name": "ERC721InvalidApprover",
      "type": "error"
    },
    {
      "inputs": [
        {
          "internalType": "address",
          "name": "operator",
          "type": "address"
        }
      ],
      "name": "ERC721InvalidOperator",
      "type": "error"
    },
    {
      "inputs": [
        {
          "internalType": "address",
          "name": "owner",
          "type": "address"
        }
      ],
      "name": "ERC721InvalidOwner",
      "type": "error"
    },
    {
      "inputs": [
        {
          "internalType": "address",
          "name": "receiver",
          "type": "address"
        }
      ],
      "name": "ERC721InvalidReceiver",
      "type": "error"
    },
    {
      "inputs": [
        {
          "internalType": "address",
          "name": "sender",
          "type": "address"
        }
      ],
      "name": "ERC721InvalidSender",
      "type": "error"
    },
    {
      "inputs": [
        {
          "internalType": "uint256",
          "name": "tokenId",
          "type": "uint256"
        }
      ],
      "name": "ERC721NonexistentToken",
      "type": "error"
    },
    {
      "inputs": [
        {
          "internalType": "address",
          "name": "owner",
          "type": "address"
        }
      ],
      "name": "OwnableInvalidOwner",
      "type": "error"
    },
    {
      "inputs": [
        {
          "internalType": "address",
          "name": "account",
          "type": "address"
        }
      ],
      "name": "OwnableUnauthorizedAccount",
      "type": "error"
    },
    {
      "anonymous": false,
      "inputs": [
        {
          "indexed": true,
          "internalType": "address",
          "name": "owner",
          "type": "address"
        },
        {
          "indexed": true,
          "internalType": "address",
          "name": "approved",
          "type": "address"
        },
        {
          "indexed": true,
          "internalType": "uint256",
          "name": "tokenId",
          "type": "uint256"
        }
      ],
      "name": "Approval",
      "type": "event"
    },
    {
      "anonymous": false,
      "inputs": [
        {
          "indexed": true,
          "internalType": "address",
          "name": "owner",
          "type": "address"
        },
        {
          "indexed": true,
          "internalType": "address",
          "name": "operator",
          "type": "address"
        },
        {
          "indexed": false,
          "internalType": "bool",
          "name": "approved",
          "type": "bool"
        }
      ],
      "name": "ApprovalForAll",
      "type": "event"
    },
    {
      "anonymous": false,
      "inputs": [
        {
          "indexed": false,
          "internalType": "uint256",
          "name": "_fromTokenId",
          "type": "uint256"
        },
        {
          "indexed": false,
          "internalType": "uint256",
          "name": "_toTokenId",
          "type": "uint256"
        }
      ],
      "name": "BatchMetadataUpdate",
      "type": "event"
    },
    {
      "anonymous": false,
      "inputs": [
        {
          "indexed": false,
          "internalType": "uint256",
          "name": "_tokenId",
          "type": "uint256"
        }
      ],
      "name": "MetadataUpdate",
      "type": "event"
    },
    {
      "anonymous": false,
      "inputs": [
        {
          "indexed": true,
          "internalType": "uint256",
          "name": "tokenId",
          "type": "uint256"
        },
        {
          "indexed": true,
          "internalType": "address",
          "name": "creator",
          "type": "address"
        },
        {
          "indexed": false,
          "internalType": "string",
          "name": "tokenURI",
          "type": "string"
        },
        {
          "indexed": false,
          "internalType": "enum SparkMint.AccessType",
          "name": "accessType",
          "type": "uint8"
        }
      ],
      "name": "NFTCreated",
      "type": "event"
    },
    {
      "anonymous": false,
      "inputs": [
        {
          "indexed": true,
          "internalType": "uint256",
          "name": "tokenId",
          "type": "uint256"
        },
        {
          "indexed": false,
          "internalType": "uint256",
          "name": "price",
          "type": "uint256"
        }
      ],
      "name": "NFTListed",
      "type": "event"
    },
    {
      "anonymous": false,
      "inputs": [
        {
          "indexed": true,
          "internalType": "uint256",
          "name": "tokenId",
          "type": "uint256"
        },
        {
          "indexed": true,
          "internalType": "address",
          "name": "seller",
          "type": "address"
        },
        {
          "indexed": true,
          "internalType": "address",
          "name": "buyer",
          "type": "address"
        },
        {
          "indexed": false,
          "internalType": "uint256",
          "name": "price",
          "type": "uint256"
        }
      ],
      "name": "NFTSold",
      "type": "event"
    },
    {
      "anonymous": false,
      "inputs": [
        {
          "indexed": true,
          "internalType": "address",
          "name": "previousOwner",
          "type": "address"
        },
        {
          "indexed": true,
          "internalType": "address",
          "name": "newOwner",
          "type": "address"
        }
      ],
      "name": "OwnershipTransferred",
      "type": "event"
    },
    {
      "anonymous": false,
      "inputs": [
        {
          "indexed": true,
          "internalType": "uint256",
          "name": "tokenId",
          "type": "uint256"
        },
        {
          "indexed": true,
          "internalType": "address",
          "name": "creator",
          "type": "address"
        },
        {
          "indexed": false,
          "internalType": "uint256",
          "name": "amount",
          "type": "uint256"
        }
      ],
      "name": "RoyaltyPaid",
      "type": "event"
    },
    {
      "anonymous": false,
      "inputs": [
        {
          "indexed": true,
          "internalType": "address",
          "name": "from",
          "type": "address"
        },
        {
          "indexed": true,
          "internalType": "address",
          "name": "to",
          "type": "address"
        },
        {
          "indexed": true,
          "internalType": "uint256",
          "name": "tokenId",
          "type": "uint256"
        }
      ],
      "name": "Transfer",
      "type": "event"
    },
    {
      "inputs": [],
      "name": "ROYALTY_PERCENT",
      "outputs": [
        {
          "internalType": "uint256",
          "name": "",
          "type": "uint256"
        }
      ],
      "stateMutability": "view",
      "type": "function"
    },
    {
      "inputs": [
        {
          "internalType": "address",
          "name": "to",
          "type": "address"
        },
        {
          "internalType": "uint256",
          "name": "tokenId",
          "type": "uint256"
        }
      ],
      "name": "approve",
      "outputs": [],
      "stateMutability": "nonpayable",
      "type": "function"
    },
    {
      "inputs": [
        {
          "internalType": "address",
          "name": "owner",
          "type": "address"
        }
      ],
      "name": "balanceOf",
      "outputs": [
        {
          "internalType": "uint256",
          "name": "",
          "type": "uint256"
        }
      ],
      "stateMutability": "view",
      "type": "function"
    },
    {
      "inputs": [
        {
          "internalType": "uint256",
          "name": "tokenId",
          "type": "uint256"
        }
      ],
      "name": "buyNFT",
      "outputs": [],
      "stateMutability": "payable",
      "type": "function"
    },
    {
      "inputs": [
        {
          "internalType": "uint256",
          "name": "tokenId",
          "type": "uint256"
        },
        {
          "internalType": "address",
          "name": "user",
          "type": "address"
        }
      ],
      "name": "canViewNFT",
      "outputs": [
        {
          "internalType": "bool",
          "name": "",
          "type": "bool"
        }
      ],
      "stateMutability": "view",
      "type": "function"
    },
    {
      "inputs": [
        {
          "internalType": "string",
          "name": "_tokenURI",
          "type": "string"
        },
        {
          "internalType": "string",
          "name": "_title",
          "type": "string"
        },
        {
          "internalType": "string",
          "name": "_description",
          "type": "string"
        },
        {
          "internalType": "enum SparkMint.AccessType",
          "name": "_accessType",
          "type": "uint8"
        }
      ],
      "name": "createNFT",
      "outputs": [
        {
          "internalType": "uint256",
          "name": "",
          "type": "uint256"
        }
      ],
      "stateMutability": "nonpayable",
      "type": "function"
    },
    {
      "inputs": [],
      "name": "creatorSubscription",
      "outputs": [
        {
          "internalType": "contract ICreatorSubscription",
          "name": "",
          "type": "address"
        }
      ],
      "stateMutability": "view",
      "type": "function"
    },
    {
      "inputs": [],
      "name": "getAllNFTs",
      "outputs": [
        {
          "internalType": "uint256[]",
          "name": "",
          "type": "uint256[]"
        }
      ],
      "stateMutability": "view",
      "type": "function"
    },
    {
      "inputs": [
        {
          "internalType": "uint256",
          "name": "tokenId",
          "type": "uint256"
        }
      ],
      "name": "getApproved",
      "outputs": [
        {
          "internalType": "address",
          "name": "",
          "type": "address"
        }
      ],
      "stateMutability": "view",
      "type": "function"
    },
    {
      "inputs": [
        {
          "internalType": "address",
          "name": "creator",
          "type": "address"
        }
      ],
      "name": "getFreeNFTsByCreator",
      "outputs": [
        {
          "internalType": "uint256[]",
          "name": "",
          "type": "uint256[]"
        }
      ],
      "stateMutability": "view",
      "type": "function"
    },
    {
      "inputs": [
        {
          "internalType": "uint256",
          "name": "tokenId",
          "type": "uint256"
        }
      ],
      "name": "getNFT",
      "outputs": [
        {
          "components": [
            {
              "internalType": "uint256",
              "name": "tokenId",
              "type": "uint256"
            },
            {
              "internalType": "uint256",
              "name": "price",
              "type": "uint256"
            },
            {
              "internalType": "uint256",
              "name": "likes",
              "type": "uint256"
            },
            {
              "internalType": "string",
              "name": "title",
              "type": "string"
            },
            {
              "internalType": "string",
              "name": "description",
              "type": "string"
            },
            {
              "internalType": "enum SparkMint.AccessType",
              "name": "accessType",
              "type": "uint8"
            },
            {
              "internalType": "address",
              "name": "creator",
              "type": "address"
            }
          ],
          "internalType": "struct SparkMint.NFTStruct",
          "name": "",
          "type": "tuple"
        }
      ],
      "stateMutability": "view",
      "type": "function"
    },
    {
      "inputs": [
        {
          "internalType": "address",
          "name": "user",
          "type": "address"
        }
      ],
      "name": "getOwnedNFTs",
      "outputs": [
        {
          "internalType": "uint256[]",
          "name": "",
          "type": "uint256[]"
        }
      ],
      "stateMutability": "view",
      "type": "function"
    },
    {
      "inputs": [
        {
          "internalType": "address",
          "name": "creator",
          "type": "address"
        }
      ],
      "name": "getSubNFTsByCreator",
      "outputs": [
        {
          "internalType": "uint256[]",
          "name": "",
          "type": "uint256[]"
        }
      ],
      "stateMutability": "view",
      "type": "function"
    },
    {
      "inputs": [
        {
          "internalType": "address",
          "name": "owner",
          "type": "address"
        },
        {
          "internalType": "address",
          "name": "operator",
          "type": "address"
        }
      ],
      "name": "isApprovedForAll",
      "outputs": [
        {
          "internalType": "bool",
          "name": "",
          "type": "bool"
        }
      ],
      "stateMutability": "view",
      "type": "function"
    },
    {
      "inputs": [
        {
          "internalType": "uint256",
          "name": "tokenId",
          "type": "uint256"
        }
      ],
      "name": "likeNFT",
      "outputs": [],
      "stateMutability": "nonpayable",
      "type": "function"
    },
    {
      "inputs": [],
      "name": "name",
      "outputs": [
        {
          "internalType": "string",
          "name": "",
          "type": "string"
        }
      ],
      "stateMutability": "view",
      "type": "function"
    },
    {
      "inputs": [],
      "name": "owner",
      "outputs": [
        {
          "internalType": "address",
          "name": "",
          "type": "address"
        }
      ],
      "stateMutability": "view",
      "type": "function"
    },
    {
      "inputs": [
        {
          "internalType": "uint256",
          "name": "tokenId",
          "type": "uint256"
        }
      ],
      "name": "ownerOf",
      "outputs": [
        {
          "internalType": "address",
          "name": "",
          "type": "address"
        }
      ],
      "stateMutability": "view",
      "type": "function"
    },
    {
      "inputs": [],
      "name": "renounceOwnership",
      "outputs": [],
      "stateMutability": "nonpayable",
      "type": "function"
    },
    {
      "inputs": [
        {
          "internalType": "address",
          "name": "from",
          "type": "address"
        },
        {
          "internalType": "address",
          "name": "to",
          "type": "address"
        },
        {
          "internalType": "uint256",
          "name": "tokenId",
          "type": "uint256"
        }
      ],
      "name": "safeTransferFrom",
      "outputs": [],
      "stateMutability": "nonpayable",
      "type": "function"
    },
    {
      "inputs": [
        {
          "internalType": "address",
          "name": "from",
          "type": "address"
        },
        {
          "internalType": "address",
          "name": "to",
          "type": "address"
        },
        {
          "internalType": "uint256",
          "name": "tokenId",
          "type": "uint256"
        },
        {
          "internalType": "bytes",
          "name": "data",
          "type": "bytes"
        }
      ],
      "name": "safeTransferFrom",
      "outputs": [],
      "stateMutability": "nonpayable",
      "type": "function"
    },
    {
      "inputs": [
        {
          "internalType": "uint256",
          "name": "tokenId",
          "type": "uint256"
        },
        {
          "internalType": "uint256",
          "name": "price",
          "type": "uint256"
        }
      ],
      "name": "sellNFT",
      "outputs": [],
      "stateMutability": "nonpayable",
      "type": "function"
    },
    {
      "inputs": [
        {
          "internalType": "uint256",
          "name": "tokenId",
          "type": "uint256"
        },
        {
          "internalType": "enum SparkMint.AccessType",
          "name": "accessType",
          "type": "uint8"
        }
      ],
      "name": "setAccessType",
      "outputs": [],
      "stateMutability": "nonpayable",
      "type": "function"
    },
    {
      "inputs": [
        {
          "internalType": "address",
          "name": "operator",
          "type": "address"
        },
        {
          "internalType": "bool",
          "name": "approved",
          "type": "bool"
        }
      ],
      "name": "setApprovalForAll",
      "outputs": [],
      "stateMutability": "nonpayable",
      "type": "function"
    },
    {
      "inputs": [
        {
          "internalType": "bytes4",
          "name": "interfaceId",
          "type": "bytes4"
        }
      ],
      "name": "supportsInterface",
      "outputs": [
        {
          "internalType": "bool",
          "name": "",
          "type": "bool"
        }
      ],
      "stateMutability": "view",
      "type": "function"
    },
    {
      "inputs": [],
      "name": "symbol",
      "outputs": [
        {
          "internalType": "string",
          "name": "",
          "type": "string"
        }
      ],
      "stateMutability": "view",
      "type": "function"
    },
    {
      "inputs": [
        {
          "internalType": "uint256",
          "name": "tokenId",
          "type": "uint256"
        }
      ],
      "name": "tokenURI",
      "outputs": [
        {
          "internalType": "string",
          "name": "",
          "type": "string"
        }
      ],
      "stateMutability": "view",
      "type": "function"
    },
    {
      "inputs": [
        {
          "internalType": "address",
          "name": "from",
          "type": "address"
        },
        {
          "internalType": "address",
          "name": "to",
          "type": "address"
        },
        {
          "internalType": "uint256",
          "name": "tokenId",
          "type": "uint256"
        }
      ],
      "name": "transferFrom",
      "outputs": [],
      "stateMutability": "nonpayable",
      "type": "function"
    },
    {
      "inputs": [
        {
          "internalType": "address",
          "name": "newOwner",
          "type": "address"
        }
      ],
      "name": "transferOwnership",
      "outputs": [],
      "stateMutability": "nonpayable",
      "type": "function"
    }
  ],
  "bytecode": "0x608060405234801561000f575f5ffd5b50604051612e34380380612e3483398101604081905261002e9161013c565b336040518060400160405280600d81526020016c14dc185c9ad35a5b9d08139195609a1b8152506040518060400160405280600381526020016253504d60e81b815250815f908161007f9190610201565b50600161008c8282610201565b5050506001600160a01b0381166100bc57604051631e4fbdf760e01b81525f600482015260240160405180910390fd5b6100c5816100eb565b50600980546001600160a01b0319166001600160a01b03929092169190911790556102bb565b600780546001600160a01b038381166001600160a01b0319831681179093556040519116919082907f8be0079c531659141344cd1fd0a4f28419497f9722a3daafe3b4186f6b6457e0905f90a35050565b5f6020828403121561014c575f5ffd5b81516001600160a01b0381168114610162575f5ffd5b9392505050565b634e487b7160e01b5f52604160045260245ffd5b600181811c9082168061019157607f821691505b6020821081036101af57634e487b7160e01b5f52602260045260245ffd5b50919050565b601f8211156101fc57805f5260205f20601f840160051c810160208510156101da5750805b601f840160051c820191505b818110156101f9575f81556001016101e6565b50505b505050565b81516001600160401b0381111561021a5761021a610169565b61022e81610228845461017d565b846101b5565b6020601f821160018114610260575f83156102495750848201515b5f19600385901b1c1916600184901b1784556101f9565b5f84815260208120601f198516915b8281101561028f578785015182556020948501946001909201910161026f565b50848210156102ac57868401515f19600387901b60f8161c191681555b50505050600190811b01905550565b612b6c806102c85f395ff3fe6080604052600436106101ba575f3560e01c80637b4ab0a0116100f2578063bb24aa4311610092578063dc78aa5411610062578063dc78aa54146104ef578063e0391b091461050e578063e985e9c514610522578063f2fde38b14610541575f5ffd5b8063bb24aa431461047e578063c87b56dd1461049d578063cdcd897e146104bc578063da472a0f146104d0575f5ffd5b806395d89b41116100cd57806395d89b411461040d5780639cad649b14610421578063a22cb46514610440578063b88d4fde1461045f575f5ffd5b80637b4ab0a0146103b25780638da5cb5b146103d157806391a48a1e146103ee575f5ffd5b806342842e0e1161015d578063576f7ea711610138578063576f7ea7146103265780636352211e1461035257806370a0823114610371578063715018a61461039e575f5ffd5b806342842e0e146102d55780634d009599146102f457806351ed828814610313575f5ffd5b8063095ea7b311610198578063095ea7b31461024a57806318148f1b1461026b57806318ef1a131461029757806323b872dd146102b6575f5ffd5b806301ffc9a7146101be57806306fdde03146101f2578063081812fc14610213575b5f5ffd5b3480156101c9575f5ffd5b506101dd6101d83660046123f7565b610560565b60405190151581526020015b60405180910390f35b3480156101fd575f5ffd5b5061020661058a565b6040516101e99190612440565b34801561021e575f5ffd5b5061023261022d366004612452565b610619565b6040516001600160a01b0390911681526020016101e9565b348015610255575f5ffd5b50610269610264366004612484565b610640565b005b348015610276575f5ffd5b5061028a6102853660046124ac565b61064f565b6040516101e991906124c5565b3480156102a2575f5ffd5b5061028a6102b13660046124ac565b6106b8565b3480156102c1575f5ffd5b506102696102d03660046124fc565b61090b565b3480156102e0575f5ffd5b506102696102ef3660046124fc565b610999565b3480156102ff575f5ffd5b506101dd61030e366004612536565b6109b8565b610269610321366004612452565b610c8b565b348015610331575f5ffd5b50610345610340366004612452565b610ef2565b6040516101e99190612594565b34801561035d575f5ffd5b5061023261036c366004612452565b6110fd565b34801561037c575f5ffd5b5061039061038b3660046124ac565b611107565b6040519081526020016101e9565b3480156103a9575f5ffd5b5061026961114c565b3480156103bd575f5ffd5b50600954610232906001600160a01b031681565b3480156103dc575f5ffd5b506007546001600160a01b0316610232565b3480156103f9575f5ffd5b5061026961040836600461261f565b61115f565b348015610418575f5ffd5b50610206611241565b34801561042c575f5ffd5b5061028a61043b3660046124ac565b611250565b34801561044b575f5ffd5b5061026961045a36600461264c565b611478565b34801561046a575f5ffd5b5061026961047936600461270c565b611483565b348015610489575f5ffd5b506103906104983660046127af565b61149b565b3480156104a8575f5ffd5b506102066104b7366004612452565b611631565b3480156104c7575f5ffd5b50610390600a81565b3480156104db575f5ffd5b506102696104ea366004612452565b6116b2565b3480156104fa575f5ffd5b5061026961050936600461284e565b61171c565b348015610519575f5ffd5b5061028a6117a1565b34801561052d575f5ffd5b506101dd61053c36600461286f565b61182d565b34801561054c575f5ffd5b5061026961055b3660046124ac565b61185a565b5f6001600160e01b03198216632483248360e11b1480610584575061058482611897565b92915050565b60605f805461059890612897565b80601f01602080910402602001604051908101604052809291908181526020018280546105c490612897565b801561060f5780601f106105e65761010080835404028352916020019161060f565b820191905f5260205f20905b8154815290600101906020018083116105f257829003601f168201915b5050505050905090565b5f610623826118e6565b505f828152600460205260409020546001600160a01b0316610584565b61064b82823361191e565b5050565b6001600160a01b0381165f908152600b60209081526040918290208054835181840281018401909452808452606093928301828280156106ac57602002820191905f5260205f20905b815481526020019060010190808311610698575b50505050509050919050565b6001600160a01b0381165f908152600a6020908152604080832080548251818502810185019093528083526060949383018282801561071457602002820191905f5260205f20905b815481526020019060010190808311610700575b509394505f935083925050505b82518110156107e1575f6001600160a01b031661076b848381518110610749576107496128c9565b60200260200101515f908152600260205260409020546001600160a01b031690565b6001600160a01b0316141580156107c657505f600c5f858481518110610793576107936128c9565b60209081029190910181015182528101919091526040015f206005015460ff1660018111156107c4576107c4612560565b145b156107d957816107d5816128f1565b9250505b600101610721565b505f8167ffffffffffffffff8111156107fc576107fc612681565b604051908082528060200260200182016040528015610825578160200160208202803683370190505b5090505f805b8451811015610900575f6001600160a01b0316610853868381518110610749576107496128c9565b6001600160a01b0316141580156108ae57505f600c5f87848151811061087b5761087b6128c9565b60209081029190910181015182528101919091526040015f206005015460ff1660018111156108ac576108ac612560565b145b156108f8578481815181106108c5576108c56128c9565b60200260200101518383815181106108df576108df6128c9565b6020908102919091010152816108f4816128f1565b9250505b60010161082b565b509095945050505050565b6001600160a01b03821661093957604051633250574960e11b81525f60048201526024015b60405180910390fd5b5f61094583833361192b565b9050836001600160a01b0316816001600160a01b031614610993576040516364283d7b60e01b81526001600160a01b0380861660048301526024820184905282166044820152606401610930565b50505050565b6109b383838360405180602001604052805f815250611483565b505050565b5f828152600260205260408120546001600160a01b0316610a105760405162461bcd60e51b815260206004820152601260248201527113919508191bd95cc81b9bdd08195e1a5cdd60721b6044820152606401610930565b5f600c5f8581526020019081526020015f206040518060e00160405290815f82015481526020016001820154815260200160028201548152602001600382018054610a5a90612897565b80601f0160208091040260200160405190810160405280929190818152602001828054610a8690612897565b8015610ad15780601f10610aa857610100808354040283529160200191610ad1565b820191905f5260205f20905b815481529060010190602001808311610ab457829003601f168201915b50505050508152602001600482018054610aea90612897565b80601f0160208091040260200160405190810160405280929190818152602001828054610b1690612897565b8015610b615780601f10610b3857610100808354040283529160200191610b61565b820191905f5260205f20905b815481529060010190602001808311610b4457829003601f168201915b5050509183525050600582015460209091019060ff166001811115610b8857610b88612560565b6001811115610b9957610b99612560565b81526005919091015461010090046001600160a01b031660209091015290505f8160a001516001811115610bcf57610bcf612560565b03610bde576001915050610584565b826001600160a01b0316610bf1856110fd565b6001600160a01b031603610c09576001915050610584565b60c0810151600954604051637b20b77b60e11b81526001600160a01b03868116600483015280841660248301529091169063f6416ef690604401602060405180830381865afa158015610c5e573d5f5f3e3d5ffd5b505050506040513d601f19601f82011682018060405250810190610c829190612909565b95945050505050565b5f610c95826110fd565b5f838152600c6020526040902060018101546005909101549192509061010090046001600160a01b031681610cff5760405162461bcd60e51b815260206004820152601060248201526f4e4654206e6f7420666f722073616c6560801b6044820152606401610930565b813414610d435760405162461bcd60e51b8152602060048201526012602482015271125b98dbdc9c9958dd08115512081cd95b9d60721b6044820152606401610930565b336001600160a01b03841603610d9b5760405162461bcd60e51b815260206004820152601760248201527f43616e6e6f742062757920796f7572206f776e204e46540000000000000000006044820152606401610930565b5f826001600160a01b0385811690841614610e4f576064610dbd600a86612924565b610dc7919061293b565b9150610dd3828561295a565b6040519091506001600160a01b0384169083156108fc029084905f818181858888f19350505050158015610e09573d5f5f3e3d5ffd5b50826001600160a01b0316867ff670029fc6f5302baba881b4ae845d1453acdf752b4c19ed81fe0fa6a686409b84604051610e4691815260200190565b60405180910390a35b6040516001600160a01b0386169082156108fc029083905f818181858888f19350505050158015610e82573d5f5f3e3d5ffd5b50610e8e8533886119ee565b5f868152600c6020526040808220600101919091555133906001600160a01b0387169088907f8562eb94748e30bb0071e932744ce902b460c683474fcb3bfd567ffa16b1afb290610ee29089815260200190565b60405180910390a4505050505050565b610efa612399565b5f828152600260205260409020546001600160a01b0316610f525760405162461bcd60e51b815260206004820152601260248201527113919508191bd95cc81b9bdd08195e1a5cdd60721b6044820152606401610930565b600c5f8381526020019081526020015f206040518060e00160405290815f82015481526020016001820154815260200160028201548152602001600382018054610f9b90612897565b80601f0160208091040260200160405190810160405280929190818152602001828054610fc790612897565b80156110125780601f10610fe957610100808354040283529160200191611012565b820191905f5260205f20905b815481529060010190602001808311610ff557829003601f168201915b5050505050815260200160048201805461102b90612897565b80601f016020809104026020016040519081016040528092919081815260200182805461105790612897565b80156110a25780601f10611079576101008083540402835291602001916110a2565b820191905f5260205f20905b81548152906001019060200180831161108557829003601f168201915b5050509183525050600582015460209091019060ff1660018111156110c9576110c9612560565b60018111156110da576110da612560565b81526005919091015461010090046001600160a01b031660209091015292915050565b5f610584826118e6565b5f6001600160a01b038216611131576040516322718ad960e21b81525f6004820152602401610930565b506001600160a01b03165f9081526003602052604090205490565b611154611a9b565b61115d5f611ac8565b565b33611169836110fd565b6001600160a01b0316146111af5760405162461bcd60e51b815260206004820152600d60248201526c2737ba1027232a1037bbb732b960991b6044820152606401610930565b5f81116111ee5760405162461bcd60e51b815260206004820152600d60248201526c496e76616c696420707269636560981b6044820152606401610930565b5f828152600c6020526040908190206001018290555182907fa6cd73580a273eec6c1026108f6b63479fbaef5356dde4ff43e4b38dd187485f906112359084815260200190565b60405180910390a25050565b60606001805461059890612897565b6001600160a01b0381165f908152600a602090815260408083208054825181850281018501909352808352606094938301828280156112ac57602002820191905f5260205f20905b815481526020019060010190808311611298575b509394505f935083925050505b8251811015611358575f6001600160a01b03166112e1848381518110610749576107496128c9565b6001600160a01b03161415801561133d57506001600c5f85848151811061130a5761130a6128c9565b60209081029190910181015182528101919091526040015f206005015460ff16600181111561133b5761133b612560565b145b15611350578161134c816128f1565b9250505b6001016112b9565b505f8167ffffffffffffffff81111561137357611373612681565b60405190808252806020026020018201604052801561139c578160200160208202803683370190505b5090505f805b8451811015610900575f6001600160a01b03166113ca868381518110610749576107496128c9565b6001600160a01b03161415801561142657506001600c5f8784815181106113f3576113f36128c9565b60209081029190910181015182528101919091526040015f206005015460ff16600181111561142457611424612560565b145b156114705784818151811061143d5761143d6128c9565b6020026020010151838381518110611457576114576128c9565b60209081029190910101528161146c816128f1565b9250505b6001016113a2565b61064b338383611b19565b61148e84848461090b565b6109933385858585611be0565b600880545f91826114ab836128f1565b90915550506008546114bd3382611d08565b6114c78187611d69565b6040518060e001604052808281526020015f81526020015f815260200186815260200185815260200184600181111561150257611502612560565b8152336020918201525f838152600c82526040908190208351815591830151600183015582015160028201556060820151600382019061154290826129b1565b506080820151600482019061155790826129b1565b5060a082015160058201805460ff19166001838181111561157a5761157a612560565b021790555060c09190910151600590910180546001600160a01b0390921661010002610100600160a81b0319909216919091179055335f818152600a6020908152604080832080546001818101835591855283852001869055848452600b835281842080549182018155845291909220018390555182907ff6b52a82af840e86ca36f39eb954a6b86b71cfdffffcb62cd6df97a8118c7ede90611620908a908890612a6c565b60405180910390a395945050505050565b606061163c826118e6565b505f61165260408051602081019091525f815290565b90505f61165e84611db8565b905081515f0361166f579392505050565b8051156116a1578181604051602001611689929190612aa4565b60405160208183030381529060405292505050919050565b6116aa84611e4d565b949350505050565b6116bc81336109b8565b6116f85760405162461bcd60e51b815260206004820152600d60248201526c1058d8d95cdcc819195b9a5959609a1b6044820152606401610930565b5f818152600c60205260408120600201805491611714836128f1565b919050555050565b33611726836110fd565b6001600160a01b03161461176c5760405162461bcd60e51b815260206004820152600d60248201526c2737ba1027232a1037bbb732b960991b6044820152606401610930565b5f828152600c60205260409020600501805482919060ff19166001838181111561179857611798612560565b02179055505050565b60605f60085467ffffffffffffffff8111156117bf576117bf612681565b6040519080825280602002602001820160405280156117e8578160200160208202803683370190505b5090505f5b60085481101561182757611802816001612ab8565b828281518110611814576118146128c9565b60209081029190910101526001016117ed565b50919050565b6001600160a01b039182165f90815260056020908152604080832093909416825291909152205460ff1690565b611862611a9b565b6001600160a01b03811661188b57604051631e4fbdf760e01b81525f6004820152602401610930565b61189481611ac8565b50565b5f6001600160e01b031982166380ac58cd60e01b14806118c757506001600160e01b03198216635b5e139f60e01b145b8061058457506301ffc9a760e01b6001600160e01b0319831614610584565b5f818152600260205260408120546001600160a01b03168061058457604051637e27328960e01b815260048101849052602401610930565b6109b38383836001611ebd565b5f828152600260205260408120546001600160a01b03168161194e868686611fc1565b90506001600160a01b0382161580159061197a5750856001600160a01b0316826001600160a01b031614155b156119895761198982866120b3565b6001600160a01b038616158015906119b35750856001600160a01b0316826001600160a01b031614155b156119e3576001600160a01b0386165f908152600b60209081526040822080546001810182559083529120018590555b9150505b9392505050565b6001600160a01b038216611a1757604051633250574960e11b81525f6004820152602401610930565b5f611a2383835f61192b565b90506001600160a01b038116611a4f57604051637e27328960e01b815260048101839052602401610930565b836001600160a01b0316816001600160a01b031614610993576040516364283d7b60e01b81526001600160a01b0380861660048301526024820184905282166044820152606401610930565b6007546001600160a01b0316331461115d5760405163118cdaa760e01b8152336004820152602401610930565b600780546001600160a01b038381166001600160a01b0319831681179093556040519116919082907f8be0079c531659141344cd1fd0a4f28419497f9722a3daafe3b4186f6b6457e0905f90a35050565b6001600160a01b038316611b425760405163a9fbf51f60e01b81525f6004820152602401610930565b6001600160a01b038216611b7457604051630b61174360e31b81526001600160a01b0383166004820152602401610930565b6001600160a01b038381165f81815260056020908152604080832094871680845294825291829020805460ff191686151590811790915591519182527f17307eab39ab6107e8899845ad3d59bd9653f200f220920489ca2b5937696c31910160405180910390a3505050565b6001600160a01b0383163b15611d0157604051630a85bd0160e11b81526001600160a01b0384169063150b7a0290611c22908890889087908790600401612acb565b6020604051808303815f875af1925050508015611c5c575060408051601f3d908101601f19168201909252611c5991810190612b07565b60015b611cc3573d808015611c89576040519150601f19603f3d011682016040523d82523d5f602084013e611c8e565b606091505b5080515f03611cbb57604051633250574960e11b81526001600160a01b0385166004820152602401610930565b805160208201fd5b6001600160e01b03198116630a85bd0160e11b14611cff57604051633250574960e11b81526001600160a01b0385166004820152602401610930565b505b5050505050565b6001600160a01b038216611d3157604051633250574960e11b81525f6004820152602401610930565b5f611d3d83835f61192b565b90506001600160a01b038116156109b3576040516339e3563760e11b81525f6004820152602401610930565b5f828152600660205260409020611d8082826129b1565b506040518281527ff8e1a15aba9398e019f0b49df1a4fde98ee17ae345cb5f6b5e2c27f5033e8ce79060200160405180910390a15050565b5f818152600660205260409020805460609190611dd490612897565b80601f0160208091040260200160405190810160405280929190818152602001828054611e0090612897565b80156106ac5780601f10611e22576101008083540402835291602001916106ac565b820191905f5260205f20905b815481529060010190602001808311611e2e5750939695505050505050565b6060611e58826118e6565b505f611e6e60408051602081019091525f815290565b90505f815111611e8c5760405180602001604052805f8152506119e7565b80611e968461216d565b604051602001611ea7929190612aa4565b6040516020818303038152906040529392505050565b8080611ed157506001600160a01b03821615155b15611f92575f611ee0846118e6565b90506001600160a01b03831615801590611f0c5750826001600160a01b0316816001600160a01b031614155b8015611f1f5750611f1d818461182d565b155b15611f485760405163a9fbf51f60e01b81526001600160a01b0384166004820152602401610930565b8115611f905783856001600160a01b0316826001600160a01b03167f8c5be1e5ebec7d5bd14f71427d1e84f3dd0314c0f7b2291e5b200ac8c7c3b92560405160405180910390a45b505b50505f90815260046020526040902080546001600160a01b0319166001600160a01b0392909216919091179055565b5f828152600260205260408120546001600160a01b0390811690831615611fed57611fed8184866121fd565b6001600160a01b03811615612027576120085f855f5f611ebd565b6001600160a01b0381165f90815260036020526040902080545f190190555b6001600160a01b03851615612055576001600160a01b0385165f908152600360205260409020805460010190555b5f8481526002602052604080822080546001600160a01b0319166001600160a01b0389811691821790925591518793918516917fddf252ad1be2c89b69c2b068fc378daa952ba7f163c4a11628f55a4df523b3ef91a4949350505050565b6001600160a01b0382165f908152600b60205260408120905b815481101561099357828282815481106120e8576120e86128c9565b905f5260205f2001540361216557815482906121069060019061295a565b81548110612116576121166128c9565b905f5260205f200154828281548110612131576121316128c9565b905f5260205f2001819055508180548061214d5761214d612b22565b600190038181905f5260205f20015f90559055610993565b6001016120cc565b60605f61217983612261565b60010190505f8167ffffffffffffffff81111561219857612198612681565b6040519080825280601f01601f1916602001820160405280156121c2576020820181803683370190505b5090508181016020015b5f19016f181899199a1a9b1b9c1cb0b131b232b360811b600a86061a8153600a85049450846121cc57509392505050565b612208838383612338565b6109b3576001600160a01b03831661223657604051637e27328960e01b815260048101829052602401610930565b60405163177e802f60e01b81526001600160a01b038316600482015260248101829052604401610930565b5f8072184f03e93ff9f4daa797ed6e38ed64bf6a1f0160401b831061229f5772184f03e93ff9f4daa797ed6e38ed64bf6a1f0160401b830492506040015b6d04ee2d6d415b85acef810000000083106122cb576d04ee2d6d415b85acef8100000000830492506020015b662386f26fc1000083106122e957662386f26fc10000830492506010015b6305f5e1008310612301576305f5e100830492506008015b612710831061231557612710830492506004015b60648310612327576064830492506002015b600a83106105845760010192915050565b5f6001600160a01b038316158015906116aa5750826001600160a01b0316846001600160a01b031614806123715750612371848461182d565b806116aa5750505f908152600460205260409020546001600160a01b03908116911614919050565b6040518060e001604052805f81526020015f81526020015f815260200160608152602001606081526020015f60018111156123d6576123d6612560565b81525f60209091015290565b6001600160e01b031981168114611894575f5ffd5b5f60208284031215612407575f5ffd5b81356119e7816123e2565b5f81518084528060208401602086015e5f602082860101526020601f19601f83011685010191505092915050565b602081525f6119e76020830184612412565b5f60208284031215612462575f5ffd5b5035919050565b80356001600160a01b038116811461247f575f5ffd5b919050565b5f5f60408385031215612495575f5ffd5b61249e83612469565b946020939093013593505050565b5f602082840312156124bc575f5ffd5b6119e782612469565b602080825282518282018190525f918401906040840190835b818110156109005783518352602093840193909201916001016124de565b5f5f5f6060848603121561250e575f5ffd5b61251784612469565b925061252560208501612469565b929592945050506040919091013590565b5f5f60408385031215612547575f5ffd5b8235915061255760208401612469565b90509250929050565b634e487b7160e01b5f52602160045260245ffd5b6002811061259057634e487b7160e01b5f52602160045260245ffd5b9052565b602081528151602082015260208201516040820152604082015160608201525f606083015160e060808401526125ce610100840182612412565b90506080840151601f198483030160a08501526125eb8282612412565b91505060a084015161260060c0850182612574565b5060c093909301516001600160a01b031660e092909201919091525090565b5f5f60408385031215612630575f5ffd5b50508035926020909101359150565b8015158114611894575f5ffd5b5f5f6040838503121561265d575f5ffd5b61266683612469565b915060208301356126768161263f565b809150509250929050565b634e487b7160e01b5f52604160045260245ffd5b5f5f67ffffffffffffffff8411156126af576126af612681565b50604051601f19601f85018116603f0116810181811067ffffffffffffffff821117156126de576126de612681565b6040528381529050808284018510156126f5575f5ffd5b838360208301375f60208583010152509392505050565b5f5f5f5f6080858703121561271f575f5ffd5b61272885612469565b935061273660208601612469565b925060408501359150606085013567ffffffffffffffff811115612758575f5ffd5b8501601f81018713612768575f5ffd5b61277787823560208401612695565b91505092959194509250565b5f82601f830112612792575f5ffd5b6119e783833560208501612695565b80356002811061247f575f5ffd5b5f5f5f5f608085870312156127c2575f5ffd5b843567ffffffffffffffff8111156127d8575f5ffd5b6127e487828801612783565b945050602085013567ffffffffffffffff811115612800575f5ffd5b61280c87828801612783565b935050604085013567ffffffffffffffff811115612828575f5ffd5b61283487828801612783565b925050612843606086016127a1565b905092959194509250565b5f5f6040838503121561285f575f5ffd5b82359150612557602084016127a1565b5f5f60408385031215612880575f5ffd5b61288983612469565b915061255760208401612469565b600181811c908216806128ab57607f821691505b60208210810361182757634e487b7160e01b5f52602260045260245ffd5b634e487b7160e01b5f52603260045260245ffd5b634e487b7160e01b5f52601160045260245ffd5b5f60018201612902576129026128dd565b5060010190565b5f60208284031215612919575f5ffd5b81516119e78161263f565b8082028115828204841417610584576105846128dd565b5f8261295557634e487b7160e01b5f52601260045260245ffd5b500490565b81810381811115610584576105846128dd565b601f8211156109b357805f5260205f20601f840160051c810160208510156129925750805b601f840160051c820191505b81811015611d01575f815560010161299e565b815167ffffffffffffffff8111156129cb576129cb612681565b6129df816129d98454612897565b8461296d565b6020601f821160018114612a11575f83156129fa5750848201515b5f19600385901b1c1916600184901b178455611d01565b5f84815260208120601f198516915b82811015612a405787850151825560209485019460019092019101612a20565b5084821015612a5d57868401515f19600387901b60f8161c191681555b50505050600190811b01905550565b604081525f612a7e6040830185612412565b90506119e76020830184612574565b5f81518060208401855e5f93019283525090919050565b5f6116aa612ab28386612a8d565b84612a8d565b80820180821115610584576105846128dd565b6001600160a01b03858116825284166020820152604081018390526080606082018190525f90612afd90830184612412565b9695505050505050565b5f60208284031215612b17575f5ffd5b81516119e7816123e2565b634e487b7160e01b5f52603160045260245ffdfea264697066735822122004188f1c86532d87cec06f882078e20790ba39c81571f10994be783d58f559ee64736f6c634300081c0033",
  "linkReferences": {},
  "deployedLinkReferences": {}
}